{
  "_format": "hh-sol-artifact-1",
  "contractName": "MyEpicNFT",
  "sourceName": "contracts/MyEpicNFT.sol",
  "abi": [
    {
      "inputs": [],
      "stateMutability": "nonpayable",
      "type": "constructor"
    },
    {
      "anonymous": false,
      "inputs": [
        {
          "indexed": true,
          "internalType": "address",
          "name": "owner",
          "type": "address"
        },
        {
          "indexed": true,
          "internalType": "address",
          "name": "approved",
          "type": "address"
        },
        {
          "indexed": true,
          "internalType": "uint256",
          "name": "tokenId",
          "type": "uint256"
        }
      ],
      "name": "Approval",
      "type": "event"
    },
    {
      "anonymous": false,
      "inputs": [
        {
          "indexed": true,
          "internalType": "address",
          "name": "owner",
          "type": "address"
        },
        {
          "indexed": true,
          "internalType": "address",
          "name": "operator",
          "type": "address"
        },
        {
          "indexed": false,
          "internalType": "bool",
          "name": "approved",
          "type": "bool"
        }
      ],
      "name": "ApprovalForAll",
      "type": "event"
    },
    {
      "anonymous": false,
      "inputs": [
        {
          "indexed": false,
          "internalType": "address",
          "name": "sender",
          "type": "address"
        },
        {
          "indexed": false,
          "internalType": "uint256",
          "name": "tokenId",
          "type": "uint256"
        }
      ],
      "name": "NFTMintEvent",
      "type": "event"
    },
    {
      "anonymous": false,
      "inputs": [
        {
          "indexed": true,
          "internalType": "address",
          "name": "from",
          "type": "address"
        },
        {
          "indexed": true,
          "internalType": "address",
          "name": "to",
          "type": "address"
        },
        {
          "indexed": true,
          "internalType": "uint256",
          "name": "tokenId",
          "type": "uint256"
        }
      ],
      "name": "Transfer",
      "type": "event"
    },
    {
      "inputs": [
        {
          "internalType": "address",
          "name": "to",
          "type": "address"
        },
        {
          "internalType": "uint256",
          "name": "tokenId",
          "type": "uint256"
        }
      ],
      "name": "approve",
      "outputs": [],
      "stateMutability": "nonpayable",
      "type": "function"
    },
    {
      "inputs": [
        {
          "internalType": "address",
          "name": "owner",
          "type": "address"
        }
      ],
      "name": "balanceOf",
      "outputs": [
        {
          "internalType": "uint256",
          "name": "",
          "type": "uint256"
        }
      ],
      "stateMutability": "view",
      "type": "function"
    },
    {
      "inputs": [
        {
          "internalType": "uint256",
          "name": "tokenId",
          "type": "uint256"
        }
      ],
      "name": "getApproved",
      "outputs": [
        {
          "internalType": "address",
          "name": "",
          "type": "address"
        }
      ],
      "stateMutability": "view",
      "type": "function"
    },
    {
      "inputs": [],
      "name": "getCurrentTokenId",
      "outputs": [
        {
          "internalType": "uint256",
          "name": "",
          "type": "uint256"
        }
      ],
      "stateMutability": "view",
      "type": "function"
    },
    {
      "inputs": [
        {
          "internalType": "address",
          "name": "owner",
          "type": "address"
        },
        {
          "internalType": "address",
          "name": "operator",
          "type": "address"
        }
      ],
      "name": "isApprovedForAll",
      "outputs": [
        {
          "internalType": "bool",
          "name": "",
          "type": "bool"
        }
      ],
      "stateMutability": "view",
      "type": "function"
    },
    {
      "inputs": [],
      "name": "makeAnEpicNFT",
      "outputs": [],
      "stateMutability": "nonpayable",
      "type": "function"
    },
    {
      "inputs": [],
      "name": "name",
      "outputs": [
        {
          "internalType": "string",
          "name": "",
          "type": "string"
        }
      ],
      "stateMutability": "view",
      "type": "function"
    },
    {
      "inputs": [
        {
          "internalType": "uint256",
          "name": "tokenId",
          "type": "uint256"
        }
      ],
      "name": "ownerOf",
      "outputs": [
        {
          "internalType": "address",
          "name": "",
          "type": "address"
        }
      ],
      "stateMutability": "view",
      "type": "function"
    },
    {
      "inputs": [
        {
          "internalType": "uint256",
          "name": "tokenId",
          "type": "uint256"
        }
      ],
      "name": "pickRandomColor",
      "outputs": [
        {
          "internalType": "string",
          "name": "",
          "type": "string"
        }
      ],
      "stateMutability": "view",
      "type": "function"
    },
    {
      "inputs": [
        {
          "internalType": "uint256",
          "name": "tokenId",
          "type": "uint256"
        }
      ],
      "name": "pickRandomCountry",
      "outputs": [
        {
          "internalType": "string",
          "name": "",
          "type": "string"
        }
      ],
      "stateMutability": "view",
      "type": "function"
    },
    {
      "inputs": [
        {
          "internalType": "uint256",
          "name": "tokenId",
          "type": "uint256"
        }
      ],
      "name": "pickRandomStyle",
      "outputs": [
        {
          "internalType": "string",
          "name": "",
          "type": "string"
        }
      ],
      "stateMutability": "view",
      "type": "function"
    },
    {
      "inputs": [
        {
          "internalType": "address",
          "name": "from",
          "type": "address"
        },
        {
          "internalType": "address",
          "name": "to",
          "type": "address"
        },
        {
          "internalType": "uint256",
          "name": "tokenId",
          "type": "uint256"
        }
      ],
      "name": "safeTransferFrom",
      "outputs": [],
      "stateMutability": "nonpayable",
      "type": "function"
    },
    {
      "inputs": [
        {
          "internalType": "address",
          "name": "from",
          "type": "address"
        },
        {
          "internalType": "address",
          "name": "to",
          "type": "address"
        },
        {
          "internalType": "uint256",
          "name": "tokenId",
          "type": "uint256"
        },
        {
          "internalType": "bytes",
          "name": "data",
          "type": "bytes"
        }
      ],
      "name": "safeTransferFrom",
      "outputs": [],
      "stateMutability": "nonpayable",
      "type": "function"
    },
    {
      "inputs": [
        {
          "internalType": "address",
          "name": "operator",
          "type": "address"
        },
        {
          "internalType": "bool",
          "name": "approved",
          "type": "bool"
        }
      ],
      "name": "setApprovalForAll",
      "outputs": [],
      "stateMutability": "nonpayable",
      "type": "function"
    },
    {
      "inputs": [
        {
          "internalType": "bytes4",
          "name": "interfaceId",
          "type": "bytes4"
        }
      ],
      "name": "supportsInterface",
      "outputs": [
        {
          "internalType": "bool",
          "name": "",
          "type": "bool"
        }
      ],
      "stateMutability": "view",
      "type": "function"
    },
    {
      "inputs": [],
      "name": "symbol",
      "outputs": [
        {
          "internalType": "string",
          "name": "",
          "type": "string"
        }
      ],
      "stateMutability": "view",
      "type": "function"
    },
    {
      "inputs": [
        {
          "internalType": "uint256",
          "name": "tokenId",
          "type": "uint256"
        }
      ],
      "name": "tokenURI",
      "outputs": [
        {
          "internalType": "string",
          "name": "",
          "type": "string"
        }
      ],
      "stateMutability": "view",
      "type": "function"
    },
    {
      "inputs": [
        {
          "internalType": "address",
          "name": "from",
          "type": "address"
        },
        {
          "internalType": "address",
          "name": "to",
          "type": "address"
        },
        {
          "internalType": "uint256",
          "name": "tokenId",
          "type": "uint256"
        }
      ],
      "name": "transferFrom",
      "outputs": [],
      "stateMutability": "nonpayable",
      "type": "function"
    }
  ],
  "bytecode": "0x608060405260405180610160016040528061012f81526020016200434561012f91396008908051906020019062000038929190620007e2565b506040518060c001604052806040518060400160405280600681526020017f476f6c64656e000000000000000000000000000000000000000000000000000081525081526020016040518060400160405280600481526020017f4461726b0000000000000000000000000000000000000000000000000000000081525081526020016040518060400160405280600581526020017f416d62657200000000000000000000000000000000000000000000000000000081525081526020016040518060400160405280600481526020017f48617a790000000000000000000000000000000000000000000000000000000081525081526020016040518060400160405280600381526020017f526564000000000000000000000000000000000000000000000000000000000081525081526020016040518060400160405280600681526020017f426c6f6e646500000000000000000000000000000000000000000000000000008152508152506009906006620001b692919062000873565b506040518061012001604052806040518060400160405280600881526020017f4a6170616e65736500000000000000000000000000000000000000000000000081525081526020016040518060400160405280600681526020017f4765726d616e000000000000000000000000000000000000000000000000000081525081526020016040518060400160405280600881526020017f416d65726963616e00000000000000000000000000000000000000000000000081525081526020016040518060400160405280600781526020017f42656c6769616e0000000000000000000000000000000000000000000000000081525081526020016040518060400160405280600781526020017f456e676c6973680000000000000000000000000000000000000000000000000081525081526020016040518060400160405280600581526020017f437a65636800000000000000000000000000000000000000000000000000000081525081526020016040518060400160405280600781526020017f4974616c69616e0000000000000000000000000000000000000000000000000081525081526020016040518060400160405280600681526020017f4672656e6368000000000000000000000000000000000000000000000000000081525081526020016040518060400160405280600781526020017f4c61747669616e00000000000000000000000000000000000000000000000000815250815250600a906009620003e6929190620008da565b506040518061012001604052806040518060400160405280600681526020017f4d61727a656e000000000000000000000000000000000000000000000000000081525081526020016040518060400160405280600581526020017f4c6167657200000000000000000000000000000000000000000000000000000081525081526020016040518060400160405280600381526020017f495041000000000000000000000000000000000000000000000000000000000081525081526020016040518060400160405280600881526020017f50616c6520416c6500000000000000000000000000000000000000000000000081525081526020016040518060400160405280600381526020017f416c65000000000000000000000000000000000000000000000000000000000081525081526020016040518060400160405280600581526020017f53746f757400000000000000000000000000000000000000000000000000000081525081526020016040518060400160405280600781526020017f50696c736e65720000000000000000000000000000000000000000000000000081525081526020016040518060400160405280600d81526020017f4661726d686f75736520416c650000000000000000000000000000000000000081525081526020016040518060400160405280600681526020017f536169736f6e0000000000000000000000000000000000000000000000000000815250815250600b90600962000616929190620008da565b503480156200062457600080fd5b506040518060400160405280600a81526020017f6272657744414f4e4654000000000000000000000000000000000000000000008152506040518060400160405280600481526020017f42524557000000000000000000000000000000000000000000000000000000008152508160009080519060200190620006a9929190620007e2565b508060019080519060200190620006c2929190620007e2565b505050620007106040518060400160405280600981526020017f697420776f726b732100000000000000000000000000000000000000000000008152506200071660201b620010e61760201c565b62000afb565b620007b6816040516024016200072d919062000a0f565b6040516020818303038152906040527f41304fac000000000000000000000000000000000000000000000000000000007bffffffffffffffffffffffffffffffffffffffffffffffffffffffff19166020820180517bffffffffffffffffffffffffffffffffffffffffffffffffffffffff8381831617835250505050620007b960201b60201c565b50565b60008151905060006a636f6e736f6c652e6c6f679050602083016000808483855afa5050505050565b828054620007f09062000a85565b90600052602060002090601f01602090048101928262000814576000855562000860565b82601f106200082f57805160ff191683800117855562000860565b8280016001018555821562000860579182015b828111156200085f57825182559160200191906001019062000842565b5b5090506200086f919062000941565b5090565b828054828255906000526020600020908101928215620008c7579160200282015b82811115620008c6578251829080519060200190620008b5929190620007e2565b509160200191906001019062000894565b5b509050620008d6919062000960565b5090565b8280548282559060005260206000209081019282156200092e579160200282015b828111156200092d5782518290805190602001906200091c929190620007e2565b5091602001919060010190620008fb565b5b5090506200093d919062000960565b5090565b5b808211156200095c57600081600090555060010162000942565b5090565b5b808211156200098457600081816200097a919062000988565b5060010162000961565b5090565b508054620009969062000a85565b6000825580601f10620009aa5750620009cb565b601f016020900490600052602060002090810190620009ca919062000941565b5b50565b6000620009db8262000a33565b620009e7818562000a3e565b9350620009f981856020860162000a4f565b62000a048162000aea565b840191505092915050565b6000602082019050818103600083015262000a2b8184620009ce565b905092915050565b600081519050919050565b600082825260208201905092915050565b60005b8381101562000a6f57808201518184015260208101905062000a52565b8381111562000a7f576000848401525b50505050565b6000600282049050600182168062000a9e57607f821691505b6020821081141562000ab55762000ab462000abb565b5b50919050565b7f4e487b7100000000000000000000000000000000000000000000000000000000600052602260045260246000fd5b6000601f19601f8301169050919050565b61383a8062000b0b6000396000f3fe608060405234801561001057600080fd5b50600436106101165760003560e01c806370a08231116100a2578063a94d12bd11610071578063a94d12bd14610305578063b88d4fde14610335578063c87b56dd14610351578063de9d132f14610381578063e985e9c51461038b57610116565b806370a082311461026b5780638adb8da21461029b57806395d89b41146102cb578063a22cb465146102e957610116565b806323b872dd116100e957806323b872dd146101b557806342842e0e146101d1578063514dc8c6146101ed578063561892361461021d5780636352211e1461023b57610116565b806301ffc9a71461011b57806306fdde031461014b578063081812fc14610169578063095ea7b314610199575b600080fd5b6101356004803603810190610130919061256e565b6103bb565b6040516101429190612c0f565b60405180910390f35b61015361049d565b6040516101609190612c2a565b60405180910390f35b610183600480360381019061017e91906125c0565b61052f565b6040516101909190612b7f565b60405180910390f35b6101b360048036038101906101ae9190612532565b610575565b005b6101cf60048036038101906101ca919061242c565b61068d565b005b6101eb60048036038101906101e6919061242c565b6106ed565b005b610207600480360381019061020291906125c0565b61070d565b6040516102149190612c2a565b60405180910390f35b61022561082b565b6040516102329190612e2a565b60405180910390f35b610255600480360381019061025091906125c0565b610841565b6040516102629190612b7f565b60405180910390f35b610285600480360381019061028091906123c7565b6108f3565b6040516102929190612e2a565b60405180910390f35b6102b560048036038101906102b091906125c0565b6109ab565b6040516102c29190612c2a565b60405180910390f35b6102d3610ac9565b6040516102e09190612c2a565b60405180910390f35b61030360048036038101906102fe91906124f6565b610b5b565b005b61031f600480360381019061031a91906125c0565b610b71565b60405161032c9190612c2a565b60405180910390f35b61034f600480360381019061034a919061247b565b610c8f565b005b61036b600480360381019061036691906125c0565b610cf1565b6040516103789190612c2a565b60405180910390f35b610389610e04565b005b6103a560048036038101906103a091906123f0565b611052565b6040516103b29190612c0f565b60405180910390f35b60007f80ac58cd000000000000000000000000000000000000000000000000000000007bffffffffffffffffffffffffffffffffffffffffffffffffffffffff1916827bffffffffffffffffffffffffffffffffffffffffffffffffffffffff1916148061048657507f5b5e139f000000000000000000000000000000000000000000000000000000007bffffffffffffffffffffffffffffffffffffffffffffffffffffffff1916827bffffffffffffffffffffffffffffffffffffffffffffffffffffffff1916145b8061049657506104958261117f565b5b9050919050565b6060600080546104ac906130be565b80601f01602080910402602001604051908101604052809291908181526020018280546104d8906130be565b80156105255780601f106104fa57610100808354040283529160200191610525565b820191906000526020600020905b81548152906001019060200180831161050857829003601f168201915b5050505050905090565b600061053a826111e9565b6004600083815260200190815260200160002060009054906101000a900473ffffffffffffffffffffffffffffffffffffffff169050919050565b600061058082610841565b90508073ffffffffffffffffffffffffffffffffffffffff168373ffffffffffffffffffffffffffffffffffffffff1614156105f1576040517f08c379a00000000000000000000000000000000000000000000000000000000081526004016105e890612dea565b60405180910390fd5b8073ffffffffffffffffffffffffffffffffffffffff16610610611234565b73ffffffffffffffffffffffffffffffffffffffff16148061063f575061063e81610639611234565b611052565b5b61067e576040517f08c379a000000000000000000000000000000000000000000000000000000000815260040161067590612d8a565b60405180910390fd5b610688838361123c565b505050565b61069e610698611234565b826112f5565b6106dd576040517f08c379a00000000000000000000000000000000000000000000000000000000081526004016106d490612e0a565b60405180910390fd5b6106e883838361138a565b505050565b61070883838360405180602001604052806000815250610c8f565b505050565b6060600061074161071d846115f1565b60405160200161072d9190612b5d565b60405160208183030381529060405261179e565b905060098054905081610754919061316a565b905060098181548110610790577f4e487b7100000000000000000000000000000000000000000000000000000000600052603260045260246000fd5b9060005260206000200180546107a5906130be565b80601f01602080910402602001604051908101604052809291908181526020018280546107d1906130be565b801561081e5780601f106107f35761010080835404028352916020019161081e565b820191906000526020600020905b81548152906001019060200180831161080157829003601f168201915b5050505050915050919050565b60008061083860076117d1565b90508091505090565b6000806002600084815260200190815260200160002060009054906101000a900473ffffffffffffffffffffffffffffffffffffffff169050600073ffffffffffffffffffffffffffffffffffffffff168173ffffffffffffffffffffffffffffffffffffffff1614156108ea576040517f08c379a00000000000000000000000000000000000000000000000000000000081526004016108e190612dca565b60405180910390fd5b80915050919050565b60008073ffffffffffffffffffffffffffffffffffffffff168273ffffffffffffffffffffffffffffffffffffffff161415610964576040517f08c379a000000000000000000000000000000000000000000000000000000000815260040161095b90612d4a565b60405180910390fd5b600360008373ffffffffffffffffffffffffffffffffffffffff1673ffffffffffffffffffffffffffffffffffffffff168152602001908152602001600020549050919050565b606060006109df6109bb846115f1565b6040516020016109cb9190612b3b565b60405160208183030381529060405261179e565b9050600a80549050816109f2919061316a565b9050600a8181548110610a2e577f4e487b7100000000000000000000000000000000000000000000000000000000600052603260045260246000fd5b906000526020600020018054610a43906130be565b80601f0160208091040260200160405190810160405280929190818152602001828054610a6f906130be565b8015610abc5780601f10610a9157610100808354040283529160200191610abc565b820191906000526020600020905b815481529060010190602001808311610a9f57829003601f168201915b5050505050915050919050565b606060018054610ad8906130be565b80601f0160208091040260200160405190810160405280929190818152602001828054610b04906130be565b8015610b515780601f10610b2657610100808354040283529160200191610b51565b820191906000526020600020905b815481529060010190602001808311610b3457829003601f168201915b5050505050905090565b610b6d610b66611234565b83836117df565b5050565b60606000610ba5610b81846115f1565b604051602001610b919190612ab2565b60405160208183030381529060405261179e565b9050600b8054905081610bb8919061316a565b9050600b8181548110610bf4577f4e487b7100000000000000000000000000000000000000000000000000000000600052603260045260246000fd5b906000526020600020018054610c09906130be565b80601f0160208091040260200160405190810160405280929190818152602001828054610c35906130be565b8015610c825780601f10610c5757610100808354040283529160200191610c82565b820191906000526020600020905b815481529060010190602001808311610c6557829003601f168201915b5050505050915050919050565b610ca0610c9a611234565b836112f5565b610cdf576040517f08c379a0000000000000000000000000000000000000000000000000000000008152600401610cd690612e0a565b60405180910390fd5b610ceb8484848461194c565b50505050565b6060610cfc826111e9565b6000600660008481526020019081526020016000208054610d1c906130be565b80601f0160208091040260200160405190810160405280929190818152602001828054610d48906130be565b8015610d955780601f10610d6a57610100808354040283529160200191610d95565b820191906000526020600020905b815481529060010190602001808311610d7857829003601f168201915b505050505090506000610da66119a8565b9050600081511415610dbc578192505050610dff565b600082511115610df1578082604051602001610dd9929190612a2e565b60405160208183030381529060405292505050610dff565b610dfa846119bf565b925050505b919050565b6000610e1060076117d1565b9050610e1b81611a27565b60328110610e5e576040517f08c379a0000000000000000000000000000000000000000000000000000000008152600401610e5590612c8a565b60405180910390fd5b6000610e698261070d565b90506000610e76836109ab565b90506000610e8384610b71565b90506000838383604051602001610e9c93929190612a52565b60405160208183030381529060405290506000600882604051602001610ec3929190612a83565b60405160208183030381529060405290506000610f0883610ee384611ac0565b604051602001610ef4929190612ad4565b604051602081830303815290604052611ac0565b9050600081604051602001610f1d9190612b19565b6040516020818303038152906040529050610f6c6040518060400160405280601581526020017f0a2d2d2d2d2d2d2d2d2d2d2d2d2d2d2d2d2d2d2d2d00000000000000000000008152506110e6565b610f75816110e6565b610fb36040518060400160405280601581526020017f2d2d2d2d2d2d2d2d2d2d2d2d2d2d2d2d2d2d2d2d0a00000000000000000000008152506110e6565b610fbd3389611c7e565b610fc78882611c9c565b610fd16007611d10565b610fe3610fde60076117d1565b611a27565b6110066040518060600160405280602781526020016137de602791398933611d26565b61100f836110e6565b7fbc25a41995bab7802360225bd6ed0db9a731fbeead97c64894d5b8890917e2583389604051611040929190612be6565b60405180910390a15050505050505050565b6000600560008473ffffffffffffffffffffffffffffffffffffffff1673ffffffffffffffffffffffffffffffffffffffff16815260200190815260200160002060008373ffffffffffffffffffffffffffffffffffffffff1673ffffffffffffffffffffffffffffffffffffffff16815260200190815260200160002060009054906101000a900460ff16905092915050565b61117c816040516024016110fa9190612c2a565b6040516020818303038152906040527f41304fac000000000000000000000000000000000000000000000000000000007bffffffffffffffffffffffffffffffffffffffffffffffffffffffff19166020820180517bffffffffffffffffffffffffffffffffffffffffffffffffffffffff8381831617835250505050611dc5565b50565b60007f01ffc9a7000000000000000000000000000000000000000000000000000000007bffffffffffffffffffffffffffffffffffffffffffffffffffffffff1916827bffffffffffffffffffffffffffffffffffffffffffffffffffffffff1916149050919050565b6111f281611dee565b611231576040517f08c379a000000000000000000000000000000000000000000000000000000000815260040161122890612dca565b60405180910390fd5b50565b600033905090565b816004600083815260200190815260200160002060006101000a81548173ffffffffffffffffffffffffffffffffffffffff021916908373ffffffffffffffffffffffffffffffffffffffff160217905550808273ffffffffffffffffffffffffffffffffffffffff166112af83610841565b73ffffffffffffffffffffffffffffffffffffffff167f8c5be1e5ebec7d5bd14f71427d1e84f3dd0314c0f7b2291e5b200ac8c7c3b92560405160405180910390a45050565b60008061130183610841565b90508073ffffffffffffffffffffffffffffffffffffffff168473ffffffffffffffffffffffffffffffffffffffff16148061134357506113428185611052565b5b8061138157508373ffffffffffffffffffffffffffffffffffffffff166113698461052f565b73ffffffffffffffffffffffffffffffffffffffff16145b91505092915050565b8273ffffffffffffffffffffffffffffffffffffffff166113aa82610841565b73ffffffffffffffffffffffffffffffffffffffff1614611400576040517f08c379a00000000000000000000000000000000000000000000000000000000081526004016113f790612cca565b60405180910390fd5b600073ffffffffffffffffffffffffffffffffffffffff168273ffffffffffffffffffffffffffffffffffffffff161415611470576040517f08c379a000000000000000000000000000000000000000000000000000000000815260040161146790612d0a565b60405180910390fd5b61147b838383611e5a565b61148660008261123c565b6001600360008573ffffffffffffffffffffffffffffffffffffffff1673ffffffffffffffffffffffffffffffffffffffff16815260200190815260200160002060008282546114d69190612fd4565b925050819055506001600360008473ffffffffffffffffffffffffffffffffffffffff1673ffffffffffffffffffffffffffffffffffffffff168152602001908152602001600020600082825461152d9190612ef3565b92505081905550816002600083815260200190815260200160002060006101000a81548173ffffffffffffffffffffffffffffffffffffffff021916908373ffffffffffffffffffffffffffffffffffffffff160217905550808273ffffffffffffffffffffffffffffffffffffffff168473ffffffffffffffffffffffffffffffffffffffff167fddf252ad1be2c89b69c2b068fc378daa952ba7f163c4a11628f55a4df523b3ef60405160405180910390a46115ec838383611e5f565b505050565b60606000821415611639576040518060400160405280600181526020017f30000000000000000000000000000000000000000000000000000000000000008152509050611799565b600082905060005b6000821461166b57808061165490613121565b915050600a826116649190612f49565b9150611641565b60008167ffffffffffffffff8111156116ad577f4e487b7100000000000000000000000000000000000000000000000000000000600052604160045260246000fd5b6040519080825280601f01601f1916602001820160405280156116df5781602001600182028036833780820191505090505b5090505b60008514611792576001826116f89190612fd4565b9150600a85611707919061316a565b60306117139190612ef3565b60f81b81838151811061174f577f4e487b7100000000000000000000000000000000000000000000000000000000600052603260045260246000fd5b60200101907effffffffffffffffffffffffffffffffffffffffffffffffffffffffffffff1916908160001a905350600a8561178b9190612f49565b94506116e3565b8093505050505b919050565b6000816040516020016117b19190612a17565b6040516020818303038152906040528051906020012060001c9050919050565b600081600001549050919050565b8173ffffffffffffffffffffffffffffffffffffffff168373ffffffffffffffffffffffffffffffffffffffff16141561184e576040517f08c379a000000000000000000000000000000000000000000000000000000000815260040161184590612d2a565b60405180910390fd5b80600560008573ffffffffffffffffffffffffffffffffffffffff1673ffffffffffffffffffffffffffffffffffffffff16815260200190815260200160002060008473ffffffffffffffffffffffffffffffffffffffff1673ffffffffffffffffffffffffffffffffffffffff16815260200190815260200160002060006101000a81548160ff0219169083151502179055508173ffffffffffffffffffffffffffffffffffffffff168373ffffffffffffffffffffffffffffffffffffffff167f17307eab39ab6107e8899845ad3d59bd9653f200f220920489ca2b5937696c318360405161193f9190612c0f565b60405180910390a3505050565b61195784848461138a565b61196384848484611e64565b6119a2576040517f08c379a000000000000000000000000000000000000000000000000000000000815260040161199990612caa565b60405180910390fd5b50505050565b606060405180602001604052806000815250905090565b60606119ca826111e9565b60006119d46119a8565b905060008151116119f45760405180602001604052806000815250611a1f565b806119fe846115f1565b604051602001611a0f929190612a2e565b6040516020818303038152906040525b915050919050565b611abd81604051602401611a3b9190612e2a565b6040516020818303038152906040527ff5b1bba9000000000000000000000000000000000000000000000000000000007bffffffffffffffffffffffffffffffffffffffffffffffffffffffff19166020820180517bffffffffffffffffffffffffffffffffffffffffffffffffffffffff8381831617835250505050611dc5565b50565b60606000825190506000811415611ae95760405180602001604052806000815250915050611c79565b60006003600283611afa9190612ef3565b611b049190612f49565b6004611b109190612f7a565b90506000602082611b219190612ef3565b67ffffffffffffffff811115611b60577f4e487b7100000000000000000000000000000000000000000000000000000000600052604160045260246000fd5b6040519080825280601f01601f191660200182016040528015611b925781602001600182028036833780820191505090505b509050600060405180606001604052806040815260200161379e604091399050600181016020830160005b86811015611c365760038101905062ffffff818a015116603f8160121c168401518060081b905060ff603f83600c1c1686015116810190508060081b905060ff603f8360061c1686015116810190508060081b905060ff603f831686015116810190508060e01b90508084526004840193505050611bbd565b506003860660018114611c505760028114611c6057611c6b565b613d3d60f01b6002830352611c6b565b603d60f81b60018303525b508484525050819450505050505b919050565b611c98828260405180602001604052806000815250611ffb565b5050565b611ca582611dee565b611ce4576040517f08c379a0000000000000000000000000000000000000000000000000000000008152600401611cdb90612d6a565b60405180910390fd5b80600660008481526020019081526020016000209080519060200190611d0b929190612253565b505050565b6001816000016000828254019250508190555050565b611dc0838383604051602401611d3e93929190612c4c565b6040516020818303038152906040527fe3849f79000000000000000000000000000000000000000000000000000000007bffffffffffffffffffffffffffffffffffffffffffffffffffffffff19166020820180517bffffffffffffffffffffffffffffffffffffffffffffffffffffffff8381831617835250505050611dc5565b505050565b60008151905060006a636f6e736f6c652e6c6f679050602083016000808483855afa5050505050565b60008073ffffffffffffffffffffffffffffffffffffffff166002600084815260200190815260200160002060009054906101000a900473ffffffffffffffffffffffffffffffffffffffff1673ffffffffffffffffffffffffffffffffffffffff1614159050919050565b505050565b505050565b6000611e858473ffffffffffffffffffffffffffffffffffffffff16612056565b15611fee578373ffffffffffffffffffffffffffffffffffffffff1663150b7a02611eae611234565b8786866040518563ffffffff1660e01b8152600401611ed09493929190612b9a565b602060405180830381600087803b158015611eea57600080fd5b505af1925050508015611f1b57506040513d601f19601f82011682018060405250810190611f189190612597565b60015b611f9e573d8060008114611f4b576040519150601f19603f3d011682016040523d82523d6000602084013e611f50565b606091505b50600081511415611f96576040517f08c379a0000000000000000000000000000000000000000000000000000000008152600401611f8d90612caa565b60405180910390fd5b805181602001fd5b63150b7a0260e01b7bffffffffffffffffffffffffffffffffffffffffffffffffffffffff1916817bffffffffffffffffffffffffffffffffffffffffffffffffffffffff191614915050611ff3565b600190505b949350505050565b6120058383612079565b6120126000848484611e64565b612051576040517f08c379a000000000000000000000000000000000000000000000000000000000815260040161204890612caa565b60405180910390fd5b505050565b6000808273ffffffffffffffffffffffffffffffffffffffff163b119050919050565b600073ffffffffffffffffffffffffffffffffffffffff168273ffffffffffffffffffffffffffffffffffffffff1614156120e9576040517f08c379a00000000000000000000000000000000000000000000000000000000081526004016120e090612daa565b60405180910390fd5b6120f281611dee565b15612132576040517f08c379a000000000000000000000000000000000000000000000000000000000815260040161212990612cea565b60405180910390fd5b61213e60008383611e5a565b6001600360008473ffffffffffffffffffffffffffffffffffffffff1673ffffffffffffffffffffffffffffffffffffffff168152602001908152602001600020600082825461218e9190612ef3565b92505081905550816002600083815260200190815260200160002060006101000a81548173ffffffffffffffffffffffffffffffffffffffff021916908373ffffffffffffffffffffffffffffffffffffffff160217905550808273ffffffffffffffffffffffffffffffffffffffff16600073ffffffffffffffffffffffffffffffffffffffff167fddf252ad1be2c89b69c2b068fc378daa952ba7f163c4a11628f55a4df523b3ef60405160405180910390a461224f60008383611e5f565b5050565b82805461225f906130be565b90600052602060002090601f01602090048101928261228157600085556122c8565b82601f1061229a57805160ff19168380011785556122c8565b828001600101855582156122c8579182015b828111156122c75782518255916020019190600101906122ac565b5b5090506122d591906122d9565b5090565b5b808211156122f25760008160009055506001016122da565b5090565b600061230961230484612e6a565b612e45565b90508281526020810184848401111561232157600080fd5b61232c84828561307c565b509392505050565b60008135905061234381613741565b92915050565b60008135905061235881613758565b92915050565b60008135905061236d8161376f565b92915050565b6000815190506123828161376f565b92915050565b600082601f83011261239957600080fd5b81356123a98482602086016122f6565b91505092915050565b6000813590506123c181613786565b92915050565b6000602082840312156123d957600080fd5b60006123e784828501612334565b91505092915050565b6000806040838503121561240357600080fd5b600061241185828601612334565b925050602061242285828601612334565b9150509250929050565b60008060006060848603121561244157600080fd5b600061244f86828701612334565b935050602061246086828701612334565b9250506040612471868287016123b2565b9150509250925092565b6000806000806080858703121561249157600080fd5b600061249f87828801612334565b94505060206124b087828801612334565b93505060406124c1878288016123b2565b925050606085013567ffffffffffffffff8111156124de57600080fd5b6124ea87828801612388565b91505092959194509250565b6000806040838503121561250957600080fd5b600061251785828601612334565b925050602061252885828601612349565b9150509250929050565b6000806040838503121561254557600080fd5b600061255385828601612334565b9250506020612564858286016123b2565b9150509250929050565b60006020828403121561258057600080fd5b600061258e8482850161235e565b91505092915050565b6000602082840312156125a957600080fd5b60006125b784828501612373565b91505092915050565b6000602082840312156125d257600080fd5b60006125e0848285016123b2565b91505092915050565b6125f281613008565b82525050565b6126018161301a565b82525050565b600061261282612eb0565b61261c8185612ec6565b935061262c81856020860161308b565b61263581613257565b840191505092915050565b600061264b82612ebb565b6126558185612ed7565b935061266581856020860161308b565b61266e81613257565b840191505092915050565b600061268482612ebb565b61268e8185612ee8565b935061269e81856020860161308b565b80840191505092915050565b600081546126b7816130be565b6126c18186612ee8565b945060018216600081146126dc57600181146126ed57612720565b60ff19831686528186019350612720565b6126f685612e9b565b60005b83811015612718578154818901526001820191506020810190506126f9565b838801955050505b50505092915050565b6000612736600583612ee8565b915061274182613268565b600582019050919050565b6000612759601d83612ed7565b915061276482613291565b602082019050919050565b600061277c603283612ed7565b9150612787826132ba565b604082019050919050565b600061279f605583612ee8565b91506127aa82613309565b605582019050919050565b60006127c2602583612ed7565b91506127cd8261337e565b604082019050919050565b60006127e5601c83612ed7565b91506127f0826133cd565b602082019050919050565b6000612808602483612ed7565b9150612813826133f6565b604082019050919050565b600061282b601983612ed7565b915061283682613445565b602082019050919050565b600061284e600d83612ee8565b91506128598261346e565b600d82019050919050565b6000612871602983612ed7565b915061287c82613497565b604082019050919050565b6000612894602e83612ed7565b915061289f826134e6565b604082019050919050565b60006128b7600283612ee8565b91506128c282613535565b600282019050919050565b60006128da603e83612ed7565b91506128e58261355e565b604082019050919050565b60006128fd602083612ed7565b9150612908826135ad565b602082019050919050565b6000612920600a83612ee8565b915061292b826135d6565b600a82019050919050565b6000612943601883612ed7565b915061294e826135ff565b602082019050919050565b6000612966602183612ed7565b915061297182613628565b604082019050919050565b6000612989601d83612ee8565b915061299482613677565b601d82019050919050565b60006129ac600783612ee8565b91506129b7826136a0565b600782019050919050565b60006129cf600583612ee8565b91506129da826136c9565b600582019050919050565b60006129f2602e83612ed7565b91506129fd826136f2565b604082019050919050565b612a1181613072565b82525050565b6000612a238284612679565b915081905092915050565b6000612a3a8285612679565b9150612a468284612679565b91508190509392505050565b6000612a5e8286612679565b9150612a6a8285612679565b9150612a768284612679565b9150819050949350505050565b6000612a8f82856126aa565b9150612a9b8284612679565b9150612aa682612841565b91508190509392505050565b6000612abd82612729565b9150612ac98284612679565b915081905092915050565b6000612adf82612913565b9150612aeb8285612679565b9150612af682612792565b9150612b028284612679565b9150612b0d826128aa565b91508190509392505050565b6000612b248261297c565b9150612b308284612679565b915081905092915050565b6000612b468261299f565b9150612b528284612679565b915081905092915050565b6000612b68826129c2565b9150612b748284612679565b915081905092915050565b6000602082019050612b9460008301846125e9565b92915050565b6000608082019050612baf60008301876125e9565b612bbc60208301866125e9565b612bc96040830185612a08565b8181036060830152612bdb8184612607565b905095945050505050565b6000604082019050612bfb60008301856125e9565b612c086020830184612a08565b9392505050565b6000602082019050612c2460008301846125f8565b92915050565b60006020820190508181036000830152612c448184612640565b905092915050565b60006060820190508181036000830152612c668186612640565b9050612c756020830185612a08565b612c8260408301846125e9565b949350505050565b60006020820190508181036000830152612ca38161274c565b9050919050565b60006020820190508181036000830152612cc38161276f565b9050919050565b60006020820190508181036000830152612ce3816127b5565b9050919050565b60006020820190508181036000830152612d03816127d8565b9050919050565b60006020820190508181036000830152612d23816127fb565b9050919050565b60006020820190508181036000830152612d438161281e565b9050919050565b60006020820190508181036000830152612d6381612864565b9050919050565b60006020820190508181036000830152612d8381612887565b9050919050565b60006020820190508181036000830152612da3816128cd565b9050919050565b60006020820190508181036000830152612dc3816128f0565b9050919050565b60006020820190508181036000830152612de381612936565b9050919050565b60006020820190508181036000830152612e0381612959565b9050919050565b60006020820190508181036000830152612e23816129e5565b9050919050565b6000602082019050612e3f6000830184612a08565b92915050565b6000612e4f612e60565b9050612e5b82826130f0565b919050565b6000604051905090565b600067ffffffffffffffff821115612e8557612e84613228565b5b612e8e82613257565b9050602081019050919050565b60008190508160005260206000209050919050565b600081519050919050565b600081519050919050565b600082825260208201905092915050565b600082825260208201905092915050565b600081905092915050565b6000612efe82613072565b9150612f0983613072565b9250827fffffffffffffffffffffffffffffffffffffffffffffffffffffffffffffffff03821115612f3e57612f3d61319b565b5b828201905092915050565b6000612f5482613072565b9150612f5f83613072565b925082612f6f57612f6e6131ca565b5b828204905092915050565b6000612f8582613072565b9150612f9083613072565b9250817fffffffffffffffffffffffffffffffffffffffffffffffffffffffffffffffff0483118215151615612fc957612fc861319b565b5b828202905092915050565b6000612fdf82613072565b9150612fea83613072565b925082821015612ffd57612ffc61319b565b5b828203905092915050565b600061301382613052565b9050919050565b60008115159050919050565b60007fffffffff0000000000000000000000000000000000000000000000000000000082169050919050565b600073ffffffffffffffffffffffffffffffffffffffff82169050919050565b6000819050919050565b82818337600083830152505050565b60005b838110156130a957808201518184015260208101905061308e565b838111156130b8576000848401525b50505050565b600060028204905060018216806130d657607f821691505b602082108114156130ea576130e96131f9565b5b50919050565b6130f982613257565b810181811067ffffffffffffffff8211171561311857613117613228565b5b80604052505050565b600061312c82613072565b91507fffffffffffffffffffffffffffffffffffffffffffffffffffffffffffffffff82141561315f5761315e61319b565b5b600182019050919050565b600061317582613072565b915061318083613072565b9250826131905761318f6131ca565b5b828206905092915050565b7f4e487b7100000000000000000000000000000000000000000000000000000000600052601160045260246000fd5b7f4e487b7100000000000000000000000000000000000000000000000000000000600052601260045260246000fd5b7f4e487b7100000000000000000000000000000000000000000000000000000000600052602260045260246000fd5b7f4e487b7100000000000000000000000000000000000000000000000000000000600052604160045260246000fd5b6000601f19601f8301169050919050565b7f5354594c45000000000000000000000000000000000000000000000000000000600082015250565b7f416c6c203530204e4654732068617665206265656e206d696e74656421000000600082015250565b7f4552433732313a207472616e7366657220746f206e6f6e20455243373231526560008201527f63656976657220696d706c656d656e7465720000000000000000000000000000602082015250565b7f222c20226465736372697074696f6e223a20224d656d62657273686970204e4660008201527f5420666f72206272657744414f2e222c2022696d616765223a2022646174613a60208201527f696d6167652f7376672b786d6c3b6261736536342c0000000000000000000000604082015250565b7f4552433732313a207472616e736665722066726f6d20696e636f72726563742060008201527f6f776e6572000000000000000000000000000000000000000000000000000000602082015250565b7f4552433732313a20746f6b656e20616c7265616479206d696e74656400000000600082015250565b7f4552433732313a207472616e7366657220746f20746865207a65726f2061646460008201527f7265737300000000000000000000000000000000000000000000000000000000602082015250565b7f4552433732313a20617070726f766520746f2063616c6c657200000000000000600082015250565b7f3c2f746578743e3c2f7376673e00000000000000000000000000000000000000600082015250565b7f4552433732313a2061646472657373207a65726f206973206e6f74206120766160008201527f6c6964206f776e65720000000000000000000000000000000000000000000000602082015250565b7f45524337323155524953746f726167653a2055524920736574206f66206e6f6e60008201527f6578697374656e7420746f6b656e000000000000000000000000000000000000602082015250565b7f227d000000000000000000000000000000000000000000000000000000000000600082015250565b7f4552433732313a20617070726f76652063616c6c6572206973206e6f7420746f60008201527f6b656e206f776e6572206e6f7220617070726f76656420666f7220616c6c0000602082015250565b7f4552433732313a206d696e7420746f20746865207a65726f2061646472657373600082015250565b7f7b226e616d65223a202200000000000000000000000000000000000000000000600082015250565b7f4552433732313a20696e76616c696420746f6b656e2049440000000000000000600082015250565b7f4552433732313a20617070726f76616c20746f2063757272656e74206f776e6560008201527f7200000000000000000000000000000000000000000000000000000000000000602082015250565b7f646174613a6170706c69636174696f6e2f6a736f6e3b6261736536342c000000600082015250565b7f434f554e54525900000000000000000000000000000000000000000000000000600082015250565b7f434f4c4f52000000000000000000000000000000000000000000000000000000600082015250565b7f4552433732313a2063616c6c6572206973206e6f7420746f6b656e206f776e6560008201527f72206e6f7220617070726f766564000000000000000000000000000000000000602082015250565b61374a81613008565b811461375557600080fd5b50565b6137618161301a565b811461376c57600080fd5b50565b61377881613026565b811461378357600080fd5b50565b61378f81613072565b811461379a57600080fd5b5056fe4142434445464748494a4b4c4d4e4f505152535455565758595a6162636465666768696a6b6c6d6e6f707172737475767778797a303132333435363738392b2f416e204e4654207769746820494420257320686173206265656e206d696e74656420746f202573a264697066735822122087c1d470354d510ef7e9ed943fe767106cb745850449a75e4c8eae5293e9e12464736f6c634300080100333c73766720786d6c6e733d27687474703a2f2f7777772e77332e6f72672f323030302f73766727207072657365727665417370656374526174696f3d27784d696e594d696e206d656574272076696577426f783d273020302033353020333530273e3c7374796c653e2e62617365207b2066696c6c3a2077686974653b20666f6e742d66616d696c793a2073657269663b20666f6e742d73697a653a20323470783b207d3c2f7374796c653e3c726563742077696474683d273130302527206865696768743d2731303025272066696c6c3d27626c61636b27202f3e3c7465787420783d273530252720793d273530252720636c6173733d27626173652720646f6d696e616e742d626173656c696e653d276d6964646c652720746578742d616e63686f723d276d6964646c65273e",
  "linkReferences": {},
  "deployedLinkReferences": {}
}